{
  "_format": "hh-sol-artifact-1",
  "contractName": "SafeTransferNFT",
  "sourceName": "contracts/SafeTransferNFT.sol",
  "abi": [
    {
      "anonymous": false,
      "inputs": [
        {
          "indexed": true,
          "internalType": "address",
          "name": "_from",
          "type": "address"
        },
        {
          "indexed": true,
          "internalType": "address",
          "name": "_to",
          "type": "address"
        },
        {
          "indexed": true,
          "internalType": "uint256",
          "name": "_id",
          "type": "uint256"
        },
        {
          "indexed": false,
          "internalType": "address",
          "name": "_contract",
          "type": "address"
        }
      ],
      "name": "SafeTransferNFTComplete",
      "type": "event"
    },
    {
      "inputs": [
        {
          "internalType": "address",
          "name": "_from",
          "type": "address"
        },
        {
          "internalType": "bytes",
          "name": "secret",
          "type": "bytes"
        }
      ],
      "name": "completeTransfer",
      "outputs": [],
      "stateMutability": "nonpayable",
      "type": "function"
    },
    {
      "inputs": [
        {
          "internalType": "address",
          "name": "operator",
          "type": "address"
        },
        {
          "internalType": "address",
          "name": "from",
          "type": "address"
        },
        {
          "internalType": "uint256",
          "name": "tokenId",
          "type": "uint256"
        },
        {
          "internalType": "bytes",
          "name": "data",
          "type": "bytes"
        }
      ],
      "name": "onERC721Received",
      "outputs": [
        {
          "internalType": "bytes4",
          "name": "",
          "type": "bytes4"
        }
      ],
      "stateMutability": "nonpayable",
      "type": "function"
    },
    {
      "inputs": [
        {
          "internalType": "address",
          "name": "_to",
          "type": "address"
        }
      ],
      "name": "pullTransfer",
      "outputs": [],
      "stateMutability": "nonpayable",
      "type": "function"
    }
  ],
  "bytecode": "0x608060405234801561001057600080fd5b50610803806100206000396000f3fe608060405234801561001057600080fd5b50600436106100415760003560e01c8063150b7a0214610046578063b099e8de14610076578063bdc3c4fa1461008b575b600080fd5b6100596100543660046105f4565b61009e565b6040516001600160e01b0319909116815260200160405180910390f35b6100896100843660046105d3565b6102a9565b005b61008961009936600461068a565b6103e3565b6000601482101561011c5760405162461bcd60e51b815260206004820152603b60248201527f536166655472616e736665724e46543a2064617461206d75737420636f6e746160448201527f696e206164647265737320616e64207365637265742076616c7565000000000060648201526084015b60405180910390fd5b600061012b601482858761078f565b8080601f0160208091040260200160405190810160405280939291908181526020018383808284376000920182905250939450610171925086915060149050818861078f565b8080601f016020809104026020016040519081016040528093929190818152602001838380828437600092019190915250508251929350506020909114905061020b5760405162461bcd60e51b815260206004820152602660248201527f536166655472616e736665724e46543a20496e76616c696420736563726574206044820152650d8cadccee8d60d31b6064820152608401610113565b6000610218826020015190565b60408051606081018252338152602081018a90529081018290529091506000610242856014015190565b6001600160a01b039a8b16600090815260208181526040808320938e16835292815290829020845181546001600160a01b0319169d169c909c178c5583015160018c0155919091015160029099019890985550630a85bd0160e11b98975050505050505050565b6001600160a01b0380821660009081526020818152604080832033845282529182902082516060810184528154909416808552600182015492850192909252600201549183019190915261030f5760405162461bcd60e51b815260040161011390610747565b80516020820151604051632142170760e11b815230600482015233602482015260448101919091526001600160a01b03909116906342842e0e90606401600060405180830381600087803b15801561036657600080fd5b505af115801561037a573d6000803e3d6000fd5b505060408051606081018252600080825260208083018281528385018381526001600160a01b03998a16845283835285842033855290925293909120915182546001600160a01b0319169716969096178155905160018201559351600290940193909355505050565b6001600160a01b038083166000908152602081815260408083203384528252918290208251606081018452815490941680855260018201549285019290925260020154918301919091526104495760405162461bcd60e51b815260040161011390610747565b815160208301206040820151146104a25760405162461bcd60e51b815260206004820152601f60248201527f536166655472616e736665724e46543a20496e76616c696420736563726574006044820152606401610113565b80516020820151604051632142170760e11b815230600482015233602482015260448101919091526001600160a01b03909116906342842e0e90606401600060405180830381600087803b1580156104f957600080fd5b505af115801561050d573d6000803e3d6000fd5b505060408051606081018252600080825260208083018281528385018381526001600160a01b038b81168086528585528786203380885290865295889020965187546001600160a01b031916908316178755925160018701559051600290950194909455878201518851955195909416855292955090935090917fd785659b326dcfc76483264be76edd9c10c066cba7332f8022f39649840ec879910160405180910390a4505050565b80356001600160a01b03811681146105ce57600080fd5b919050565b6000602082840312156105e4578081fd5b6105ed826105b7565b9392505050565b60008060008060006080868803121561060b578081fd5b610614866105b7565b9450610622602087016105b7565b935060408601359250606086013567ffffffffffffffff80821115610645578283fd5b818801915088601f830112610658578283fd5b813581811115610666578384fd5b896020828501011115610677578384fd5b9699959850939650602001949392505050565b6000806040838503121561069c578182fd5b6106a5836105b7565b9150602083013567ffffffffffffffff808211156106c1578283fd5b818501915085601f8301126106d4578283fd5b8135818111156106e6576106e66107b7565b604051601f8201601f19908116603f0116810190838211818310171561070e5761070e6107b7565b81604052828152886020848701011115610726578586fd5b82602086016020830137856020848301015280955050505050509250929050565b60208082526028908201527f536166655472616e736665724e46543a204e6f207472616e7366657220696e2060408201526770726f677265737360c01b606082015260800190565b6000808585111561079e578182fd5b838611156107aa578182fd5b5050820193919092039150565b634e487b7160e01b600052604160045260246000fdfea2646970667358221220ea1f89f735c1f4f048e04769b06710378315904913b13527039117fa261f389b64736f6c63430008040033",
  "linkReferences": {},
  "deployedLinkReferences": {}
}