{
  "_format": "hh-sol-artifact-1",
  "contractName": "SafeTransfer",
  "sourceName": "contracts/SafeTransfer.sol",
  "abi": [
    {
      "anonymous": false,
      "inputs": [
        {
          "indexed": true,
          "internalType": "address",
          "name": "_from",
          "type": "address"
        },
        {
          "indexed": true,
          "internalType": "address",
          "name": "_to",
          "type": "address"
        },
        {
          "indexed": true,
          "internalType": "uint256",
          "name": "amount",
          "type": "uint256"
        }
      ],
      "name": "SafeTransferComplete",
      "type": "event"
    },
    {
      "inputs": [
        {
          "internalType": "address",
          "name": "_from",
          "type": "address"
        },
        {
          "internalType": "bytes",
          "name": "_secret",
          "type": "bytes"
        }
      ],
      "name": "completeTransfer",
      "outputs": [],
      "stateMutability": "nonpayable",
      "type": "function"
    },
    {
      "inputs": [
        {
          "internalType": "address",
          "name": "_from",
          "type": "address"
        }
      ],
      "name": "getTransfer",
      "outputs": [
        {
          "internalType": "uint256",
          "name": "",
          "type": "uint256"
        }
      ],
      "stateMutability": "view",
      "type": "function"
    },
    {
      "inputs": [
        {
          "internalType": "address",
          "name": "_to",
          "type": "address"
        },
        {
          "internalType": "bytes32",
          "name": "_secret",
          "type": "bytes32"
        }
      ],
      "name": "initiateTransfer",
      "outputs": [],
      "stateMutability": "payable",
      "type": "function"
    },
    {
      "inputs": [
        {
          "internalType": "address",
          "name": "_to",
          "type": "address"
        }
      ],
      "name": "pullTransfer",
      "outputs": [],
      "stateMutability": "nonpayable",
      "type": "function"
    }
  ],
  "bytecode": "0x608060405234801561001057600080fd5b506106a4806100206000396000f3fe60806040526004361061003f5760003560e01c8063acba27ff14610044578063b099e8de14610059578063bdc3c4fa14610079578063db0d517514610099575b600080fd5b61005761005236600461052d565b6100ea565b005b34801561006557600080fd5b5061005761007436600461050c565b6101b0565b34801561008557600080fd5b50610057610094366004610556565b610281565b3480156100a557600080fd5b506100d86100b436600461050c565b6001600160a01b031660009081526020818152604080832033845290915290205490565b60405190815260200160405180910390f35b336000908152602081815260408083206001600160a01b0386168452909152902054156101715760405162461bcd60e51b815260206004820152602a60248201527f536166655472616e736665723a205472616e7366657220616c726561647920696044820152696e2070726f677265737360b01b60648201526084015b60405180910390fd5b336000818152602081815260408083206001600160a01b0396909616808452958252808320349055928252600181528282209482529390935290912055565b336000908152602081815260408083206001600160a01b03851684529091529020546101ee5760405162461bcd60e51b815260040161016890610613565b336000818152602081815260408083206001600160a01b03861684529091529020549061021b90826103d2565b336000818152602081815260408083206001600160a01b0387168085529083528184208490559383526001825280832093835292905220541561027d573360009081526001602090815260408083206001600160a01b03861684529091528120555b5050565b6001600160a01b0382166000908152602081815260408083203384529091529020546102bf5760405162461bcd60e51b815260040161016890610613565b6001600160a01b0382166000908152600160209081526040808320338452825290912054825191830191909120811461033a5760405162461bcd60e51b815260206004820152601e60248201527f536166655472616e736665723a20496e636f72726563742073656372657400006044820152606401610168565b6001600160a01b038316600090815260208181526040808320338085529252909120549061036890826103d2565b6001600160a01b038416600081815260208181526040808320338085529083528184208490558484526001835281842081855290925280832083905551849391927f999f4f64d1ceb4eb6dd132de16b4f64d4608a154b3a00f37c8d5afad841250e291a450505050565b804710156104225760405162461bcd60e51b815260206004820152601d60248201527f416464726573733a20696e73756666696369656e742062616c616e63650000006044820152606401610168565b6000826001600160a01b03168260405160006040518083038185875af1925050503d806000811461046f576040519150601f19603f3d011682016040523d82523d6000602084013e610474565b606091505b50509050806104eb5760405162461bcd60e51b815260206004820152603a60248201527f416464726573733a20756e61626c6520746f2073656e642076616c75652c207260448201527f6563697069656e74206d617920686176652072657665727465640000000000006064820152608401610168565b505050565b80356001600160a01b038116811461050757600080fd5b919050565b60006020828403121561051d578081fd5b610526826104f0565b9392505050565b6000806040838503121561053f578081fd5b610548836104f0565b946020939093013593505050565b60008060408385031215610568578182fd5b610571836104f0565b9150602083013567ffffffffffffffff8082111561058d578283fd5b818501915085601f8301126105a0578283fd5b8135818111156105b2576105b2610658565b604051601f8201601f19908116603f011681019083821181831017156105da576105da610658565b816040528281528860208487010111156105f2578586fd5b82602086016020830137856020848301015280955050505050509250929050565b60208082526025908201527f536166655472616e736665723a204e6f207472616e7366657220696e2070726f604082015264677265737360d81b606082015260800190565b634e487b7160e01b600052604160045260246000fdfea2646970667358221220666b59b92e332acfe9645a3ae0069b98667a70438133357641638e33aad8390f64736f6c63430008040033",
  "linkReferences": {},
  "deployedLinkReferences": {}
}